{
  "_format": "hh-sol-artifact-1",
  "contractName": "Dia",
  "sourceName": "contracts/Dia.sol",
  "abi": [
    {
      "anonymous": false,
      "inputs": [
        {
          "indexed": true,
          "internalType": "address",
          "name": "src",
          "type": "address"
        },
        {
          "indexed": true,
          "internalType": "address",
          "name": "guy",
          "type": "address"
        },
        {
          "indexed": false,
          "internalType": "uint256",
          "name": "wad",
          "type": "uint256"
        }
      ],
      "name": "Approval",
      "type": "event"
    },
    {
      "anonymous": false,
      "inputs": [
        {
          "indexed": true,
          "internalType": "address",
          "name": "src",
          "type": "address"
        },
        {
          "indexed": true,
          "internalType": "address",
          "name": "dst",
          "type": "address"
        },
        {
          "indexed": false,
          "internalType": "uint256",
          "name": "wad",
          "type": "uint256"
        }
      ],
      "name": "Transfer",
      "type": "event"
    },
    {
      "inputs": [
        {
          "internalType": "address",
          "name": "",
          "type": "address"
        },
        {
          "internalType": "address",
          "name": "",
          "type": "address"
        }
      ],
      "name": "allowance",
      "outputs": [
        {
          "internalType": "uint256",
          "name": "",
          "type": "uint256"
        }
      ],
      "stateMutability": "view",
      "type": "function"
    },
    {
      "inputs": [
        {
          "internalType": "address",
          "name": "usr",
          "type": "address"
        },
        {
          "internalType": "uint256",
          "name": "wad",
          "type": "uint256"
        }
      ],
      "name": "approve",
      "outputs": [
        {
          "internalType": "bool",
          "name": "",
          "type": "bool"
        }
      ],
      "stateMutability": "nonpayable",
      "type": "function"
    },
    {
      "inputs": [
        {
          "internalType": "address",
          "name": "",
          "type": "address"
        }
      ],
      "name": "balanceOf",
      "outputs": [
        {
          "internalType": "uint256",
          "name": "",
          "type": "uint256"
        }
      ],
      "stateMutability": "view",
      "type": "function"
    },
    {
      "inputs": [
        {
          "internalType": "address",
          "name": "usr",
          "type": "address"
        },
        {
          "internalType": "uint256",
          "name": "wad",
          "type": "uint256"
        }
      ],
      "name": "burn",
      "outputs": [],
      "stateMutability": "nonpayable",
      "type": "function"
    },
    {
      "inputs": [
        {
          "internalType": "address",
          "name": "",
          "type": "address"
        }
      ],
      "name": "filLocked",
      "outputs": [
        {
          "internalType": "uint256",
          "name": "",
          "type": "uint256"
        }
      ],
      "stateMutability": "view",
      "type": "function"
    },
    {
      "inputs": [
        {
          "internalType": "uint256",
          "name": "wad",
          "type": "uint256"
        }
      ],
      "name": "mint",
      "outputs": [],
      "stateMutability": "payable",
      "type": "function"
    },
    {
      "inputs": [],
      "name": "name",
      "outputs": [
        {
          "internalType": "string",
          "name": "",
          "type": "string"
        }
      ],
      "stateMutability": "view",
      "type": "function"
    },
    {
      "inputs": [],
      "name": "priceOfFIL",
      "outputs": [
        {
          "internalType": "uint256",
          "name": "",
          "type": "uint256"
        }
      ],
      "stateMutability": "view",
      "type": "function"
    },
    {
      "inputs": [],
      "name": "symbol",
      "outputs": [
        {
          "internalType": "string",
          "name": "",
          "type": "string"
        }
      ],
      "stateMutability": "view",
      "type": "function"
    },
    {
      "inputs": [],
      "name": "totalSupply",
      "outputs": [
        {
          "internalType": "uint256",
          "name": "",
          "type": "uint256"
        }
      ],
      "stateMutability": "view",
      "type": "function"
    },
    {
      "inputs": [
        {
          "internalType": "address",
          "name": "dst",
          "type": "address"
        },
        {
          "internalType": "uint256",
          "name": "wad",
          "type": "uint256"
        }
      ],
      "name": "transfer",
      "outputs": [
        {
          "internalType": "bool",
          "name": "",
          "type": "bool"
        }
      ],
      "stateMutability": "nonpayable",
      "type": "function"
    },
    {
      "inputs": [
        {
          "internalType": "address",
          "name": "src",
          "type": "address"
        },
        {
          "internalType": "address",
          "name": "dst",
          "type": "address"
        },
        {
          "internalType": "uint256",
          "name": "wad",
          "type": "uint256"
        }
      ],
      "name": "transferFrom",
      "outputs": [
        {
          "internalType": "bool",
          "name": "",
          "type": "bool"
        }
      ],
      "stateMutability": "nonpayable",
      "type": "function"
    }
  ],
  "bytecode": "0x6080604052739e01a4ab9dc8871d216120f11bedda7a6934f780600160006101000a81548173ffffffffffffffffffffffffffffffffffffffff021916908373ffffffffffffffffffffffffffffffffffffffff160217905550600160009054906101000a900473ffffffffffffffffffffffffffffffffffffffff1673ffffffffffffffffffffffffffffffffffffffff1663b91825936040518163ffffffff1660e01b8152600401602060405180830381865afa158015620000c7573d6000803e3d6000fd5b505050506040513d601f19601f82011682018060405250810190620000ed919062000144565b600555348015620000fd57600080fd5b5062000176565b600080fd5b6000819050919050565b6200011e8162000109565b81146200012a57600080fd5b50565b6000815190506200013e8162000113565b92915050565b6000602082840312156200015d576200015c62000104565b5b60006200016d848285016200012d565b91505092915050565b61166180620001866000396000f3fe6080604052600436106100a75760003560e01c806395d89b411161006457806395d89b41146101e45780639dc29fac1461020f578063a0712d6814610238578063a0d713f014610254578063a9059cbb14610291578063dd62ed3e146102ce576100a7565b806306fdde03146100ac578063095ea7b3146100d757806318160ddd146101145780631eaacaf51461013f57806323b872dd1461016a57806370a08231146101a7575b600080fd5b3480156100b857600080fd5b506100c161030b565b6040516100ce9190610fdc565b60405180910390f35b3480156100e357600080fd5b506100fe60048036038101906100f99190611097565b610344565b60405161010b91906110f2565b60405180910390f35b34801561012057600080fd5b50610129610436565b604051610136919061111c565b60405180910390f35b34801561014b57600080fd5b5061015461043c565b604051610161919061111c565b60405180910390f35b34801561017657600080fd5b50610191600480360381019061018c9190611137565b610442565b60405161019e91906110f2565b60405180910390f35b3480156101b357600080fd5b506101ce60048036038101906101c9919061118a565b6108b9565b6040516101db919061111c565b60405180910390f35b3480156101f057600080fd5b506101f96108d1565b6040516102069190610fdc565b60405180910390f35b34801561021b57600080fd5b5061023660048036038101906102319190611097565b61090a565b005b610252600480360381019061024d91906111b7565b610d4c565b005b34801561026057600080fd5b5061027b6004803603810190610276919061118a565b610efa565b604051610288919061111c565b60405180910390f35b34801561029d57600080fd5b506102b860048036038101906102b39190611097565b610f12565b6040516102c591906110f2565b60405180910390f35b3480156102da57600080fd5b506102f560048036038101906102f091906111e4565b610f27565b604051610302919061111c565b60405180910390f35b6040518060400160405280600e81526020017f44616920537461626c65636f696e00000000000000000000000000000000000081525081565b600081600460003373ffffffffffffffffffffffffffffffffffffffff1673ffffffffffffffffffffffffffffffffffffffff16815260200190815260200160002060008573ffffffffffffffffffffffffffffffffffffffff1673ffffffffffffffffffffffffffffffffffffffff168152602001908152602001600020819055508273ffffffffffffffffffffffffffffffffffffffff163373ffffffffffffffffffffffffffffffffffffffff167f8c5be1e5ebec7d5bd14f71427d1e84f3dd0314c0f7b2291e5b200ac8c7c3b92584604051610424919061111c565b60405180910390a36001905092915050565b60005481565b60055481565b600081600260008673ffffffffffffffffffffffffffffffffffffffff1673ffffffffffffffffffffffffffffffffffffffff1681526020019081526020016000205410156104c6576040517f08c379a00000000000000000000000000000000000000000000000000000000081526004016104bd90611270565b60405180910390fd5b3373ffffffffffffffffffffffffffffffffffffffff168473ffffffffffffffffffffffffffffffffffffffff16146106c15781600460008673ffffffffffffffffffffffffffffffffffffffff1673ffffffffffffffffffffffffffffffffffffffff16815260200190815260200160002060003373ffffffffffffffffffffffffffffffffffffffff1673ffffffffffffffffffffffffffffffffffffffff1681526020019081526020016000205410156105b8576040517f08c379a00000000000000000000000000000000000000000000000000000000081526004016105af906112dc565b60405180910390fd5b81600460008673ffffffffffffffffffffffffffffffffffffffff1673ffffffffffffffffffffffffffffffffffffffff16815260200190815260200160002060003373ffffffffffffffffffffffffffffffffffffffff1673ffffffffffffffffffffffffffffffffffffffff16815260200190815260200160002054610640919061132b565b600460008673ffffffffffffffffffffffffffffffffffffffff1673ffffffffffffffffffffffffffffffffffffffff16815260200190815260200160002060003373ffffffffffffffffffffffffffffffffffffffff1673ffffffffffffffffffffffffffffffffffffffff168152602001908152602001600020819055505b81600260008673ffffffffffffffffffffffffffffffffffffffff1673ffffffffffffffffffffffffffffffffffffffff1681526020019081526020016000206000828254610710919061132b565b925050819055506004600583610726919061135f565b61073091906113d0565b600360008673ffffffffffffffffffffffffffffffffffffffff1673ffffffffffffffffffffffffffffffffffffffff168152602001908152602001600020600082825461077e919061132b565b9250508190555081600260008573ffffffffffffffffffffffffffffffffffffffff1673ffffffffffffffffffffffffffffffffffffffff16815260200190815260200160002060008282546107d49190611401565b9250508190555060046005836107ea919061135f565b6107f491906113d0565b600360008573ffffffffffffffffffffffffffffffffffffffff1673ffffffffffffffffffffffffffffffffffffffff16815260200190815260200160002060008282546108429190611401565b925050819055508273ffffffffffffffffffffffffffffffffffffffff168473ffffffffffffffffffffffffffffffffffffffff167fddf252ad1be2c89b69c2b068fc378daa952ba7f163c4a11628f55a4df523b3ef846040516108a6919061111c565b60405180910390a3600190509392505050565b60026020528060005260406000206000915090505481565b6040518060400160405280600381526020017f444149000000000000000000000000000000000000000000000000000000000081525081565b80600260008473ffffffffffffffffffffffffffffffffffffffff1673ffffffffffffffffffffffffffffffffffffffff16815260200190815260200160002054101561098c576040517f08c379a000000000000000000000000000000000000000000000000000000000815260040161098390611270565b60405180910390fd5b80600260003373ffffffffffffffffffffffffffffffffffffffff1673ffffffffffffffffffffffffffffffffffffffff16815260200190815260200160002060008282546109db919061132b565b9250508190555060055460046109f1919061135f565b6005826109fe919061135f565b610a0891906113d0565b600360003373ffffffffffffffffffffffffffffffffffffffff1673ffffffffffffffffffffffffffffffffffffffff1681526020019081526020016000206000828254610a56919061132b565b9250508190555080600054610a6b919061132b565b600081905550600260008373ffffffffffffffffffffffffffffffffffffffff1673ffffffffffffffffffffffffffffffffffffffff16815260200190815260200160002054600a6008600554600360008773ffffffffffffffffffffffffffffffffffffffff1673ffffffffffffffffffffffffffffffffffffffff16815260200190815260200160002054610b02919061135f565b610b0c919061135f565b610b1691906113d0565b10610b8e573373ffffffffffffffffffffffffffffffffffffffff168273ffffffffffffffffffffffffffffffffffffffff1614610b89576040517f08c379a0000000000000000000000000000000000000000000000000000000008152600401610b8090611481565b60405180910390fd5b610bfd565b3373ffffffffffffffffffffffffffffffffffffffff168273ffffffffffffffffffffffffffffffffffffffff1603610bfc576040517f08c379a0000000000000000000000000000000000000000000000000000000008152600401610bf3906114ed565b60405180910390fd5b5b60003373ffffffffffffffffffffffffffffffffffffffff166005546004610c25919061135f565b670de0b6b3a7640000600585610c3b919061135f565b610c45919061135f565b610c4f91906113d0565b604051610c5b9061153e565b60006040518083038185875af1925050503d8060008114610c98576040519150601f19603f3d011682016040523d82523d6000602084013e610c9d565b606091505b5050905080610ce1576040517f08c379a0000000000000000000000000000000000000000000000000000000008152600401610cd89061159f565b60405180910390fd5b600073ffffffffffffffffffffffffffffffffffffffff168373ffffffffffffffffffffffffffffffffffffffff167fddf252ad1be2c89b69c2b068fc378daa952ba7f163c4a11628f55a4df523b3ef84604051610d3f919061111c565b60405180910390a3505050565b6000670de0b6b3a764000034610d6291906113d0565b905081600a600860055484610d77919061135f565b610d81919061135f565b610d8b91906113d0565b1015610dcc576040517f08c379a0000000000000000000000000000000000000000000000000000000008152600401610dc39061160b565b60405180910390fd5b80600360003373ffffffffffffffffffffffffffffffffffffffff1673ffffffffffffffffffffffffffffffffffffffff1681526020019081526020016000206000828254610e1b9190611401565b9250508190555081600260003373ffffffffffffffffffffffffffffffffffffffff1673ffffffffffffffffffffffffffffffffffffffff1681526020019081526020016000206000828254610e719190611401565b9250508190555081600080828254610e899190611401565b925050819055503373ffffffffffffffffffffffffffffffffffffffff16600073ffffffffffffffffffffffffffffffffffffffff167fddf252ad1be2c89b69c2b068fc378daa952ba7f163c4a11628f55a4df523b3ef84604051610eee919061111c565b60405180910390a35050565b60036020528060005260406000206000915090505481565b6000610f1f338484610442565b905092915050565b6004602052816000526040600020602052806000526040600020600091509150505481565b600081519050919050565b600082825260208201905092915050565b60005b83811015610f86578082015181840152602081019050610f6b565b60008484015250505050565b6000601f19601f8301169050919050565b6000610fae82610f4c565b610fb88185610f57565b9350610fc8818560208601610f68565b610fd181610f92565b840191505092915050565b60006020820190508181036000830152610ff68184610fa3565b905092915050565b600080fd5b600073ffffffffffffffffffffffffffffffffffffffff82169050919050565b600061102e82611003565b9050919050565b61103e81611023565b811461104957600080fd5b50565b60008135905061105b81611035565b92915050565b6000819050919050565b61107481611061565b811461107f57600080fd5b50565b6000813590506110918161106b565b92915050565b600080604083850312156110ae576110ad610ffe565b5b60006110bc8582860161104c565b92505060206110cd85828601611082565b9150509250929050565b60008115159050919050565b6110ec816110d7565b82525050565b600060208201905061110760008301846110e3565b92915050565b61111681611061565b82525050565b6000602082019050611131600083018461110d565b92915050565b6000806000606084860312156111505761114f610ffe565b5b600061115e8682870161104c565b935050602061116f8682870161104c565b925050604061118086828701611082565b9150509250925092565b6000602082840312156111a05761119f610ffe565b5b60006111ae8482850161104c565b91505092915050565b6000602082840312156111cd576111cc610ffe565b5b60006111db84828501611082565b91505092915050565b600080604083850312156111fb576111fa610ffe565b5b60006112098582860161104c565b925050602061121a8582860161104c565b9150509250929050565b7f4461692f696e73756666696369656e742d62616c616e63650000000000000000600082015250565b600061125a601883610f57565b915061126582611224565b602082019050919050565b600060208201905081810360008301526112898161124d565b9050919050565b7f4461692f696e73756666696369656e742d616c6c6f77616e6365000000000000600082015250565b60006112c6601a83610f57565b91506112d182611290565b602082019050919050565b600060208201905081810360008301526112f5816112b9565b9050919050565b7f4e487b7100000000000000000000000000000000000000000000000000000000600052601160045260246000fd5b600061133682611061565b915061134183611061565b9250828203905081811115611359576113586112fc565b5b92915050565b600061136a82611061565b915061137583611061565b925082820261138381611061565b9150828204841483151761139a576113996112fc565b5b5092915050565b7f4e487b7100000000000000000000000000000000000000000000000000000000600052601260045260246000fd5b60006113db82611061565b91506113e683611061565b9250826113f6576113f56113a1565b5b828204905092915050565b600061140c82611061565b915061141783611061565b925082820190508082111561142f5761142e6112fc565b5b92915050565b7f55736572206973206f766572636f6c6c61746572616c69736564000000000000600082015250565b600061146b601a83610f57565b915061147682611435565b602082019050919050565b6000602082019050818103600083015261149a8161145e565b9050919050565b7f5573657220697320756e646572636f6c6c61746572616c697365640000000000600082015250565b60006114d7601b83610f57565b91506114e2826114a1565b602082019050919050565b60006020820190508181036000830152611506816114ca565b9050919050565b600081905092915050565b50565b600061152860008361150d565b915061153382611518565b600082019050919050565b60006115498261151b565b9150819050919050565b7f5472616e73616374696f6e206661696c65642100000000000000000000000000600082015250565b6000611589601383610f57565b915061159482611553565b602082019050919050565b600060208201905081810360008301526115b88161157c565b9050919050565b7f496e73756666696369656e742046494c2070726f766964656400000000000000600082015250565b60006115f5601983610f57565b9150611600826115bf565b602082019050919050565b60006020820190508181036000830152611624816115e8565b905091905056fea264697066735822122049dcea7e7bef8b8a00c4401c4fa38face00f83cbebd7c70988d353bd63c2166564736f6c63430008110033",
  "linkReferences": {},
  "deployedLinkReferences": {}
}